:020000040800F2
:1000000028060020750500081104000813040008E4
:1000100000000000000000000000000000000000E0
:1000200000000000000000000000000017040008AD
:100030000000000000000000190400081B04000874
:100040008705000887050008870500088705000860
:100050008705000887050008870500088705000850
:100060008705000887050008870500088705000840
:100070008705000887050008870500088705000830
:1000800087050008870500080000000087050008B4
:100090008705000887050008870500088705000810
:1000A0008705000887050008870500087704000811
:1000B0008705000800000000870500080000000018
:1000C0000348854600F088FB00480047D50000083B
:1000D00028060020002400BF0C2000F0C9FB2E4998
:1000E00008600968002008722C4840690121C90491
:1000F00008432A4948612A48006805210904084341
:10010000274908600846808803210902884324495A
:100110008880084680680F210904084320498860C8
:100120000846C0680F21090488431D49C86000F0D3
:1001300081F800F014F91BA000F0C6F824A000F02C
:10014000C3F82BA000F0C0F81EE072B61248006899
:100150000068002817D01248808AFF2101318843A7
:100160000F4988820C480068006804780A480068D3
:1001700000F0BBF92BA000F0A7F8204600F099F89A
:100180001AA000F0A1F862B6DFE708B500900028D9
:1001900001DD401EFAE708BD00000020001002400B
:1001A00000080048546869732069732053544D3324
:1001B000324630206D6963726F636F6E74726F6C5C
:1001C0006C6572206C6573736F6E20322E0A0000AE
:1001D000507265737320444946464552454E54203B
:1001E000636861726163746572732E0A0A000000AD
:1001F0005768792069732074686520677265656E39
:10020000204C4544206E6F7420626C696E6B696E81
:100210006720636F6E74696E756F75736C793F3F9D
:100220000A0A0000596F7520707265737365643A2D
:100230002000000010B56D484069012149040843C1
:100240006A4948610920C00600680521C9040843BD
:100250000921C90608600846406AFF211131084398
:100260000921C90648626148806901218903084360
:100270005E498861FF20A1305D4988810D200860BA
:1002800000204860886008460068202108435849DB
:1002900008601B2001218140564A116000BF0021E7
:1002A00000F06CF81B2001218140534A116000BF0F
:1002B00010BD00BF4E49C969802211400029F9D004
:1002C0004B4920310881704700B5034609E0187892
:1002D0000A2802D10D20FFF7ECFF18785B1CFFF70E
:1002E000E8FF18780028F2D100BD4149C969082209
:1002F0001140002904D03E49096A11433C4A116269
:1003000000BF3B49C969202211400029F9D0384972
:1003100020318988C8B2704770B59AB0064600256A
:10032000002405E0FFF7E1FF054601A80555641C20
:100330000D2D01D0642CF5DB0021601E044601AABE
:1003400011542E48808A0121490248402B49888255
:10035000642201A9304600F02DFA1AB070BD0EB526
:1003600027A103C90291019027A00068009001A86D
:10037000FFF7AAFF6846FFF7A7FF0EBD10B50028DC
:1003800019DA224A03071B0F083B9B089B00D2582F
:100390008307DC0EFF23A3409A438B071B0E8407C1
:1003A000E40EA3401A43194B0407240F083CA40889
:1003B000A4001A5118E00F4A03231B02D218830825
:1003C0009B00D2588307DC0EFF23A3409A438B0780
:1003D0001B0E8407E40EA3401A43064B0324240299
:1003E0001B198408A4001A5110BD0000001002401F
:1003F0000038014000E100E080E200E00008004831
:100400001B5B324A000000001B5B66001CED00E035
:10041000704700BFFEE770477047294801680068D1
:10042000401C274A1060002903D1012040022549C1
:100430008861234800680F2804D101204002214927
:10044000203108811E4800681E2803D10120400287
:100450001C4988611A4800682D2804D101204002F7
:1004600018492031088116480068C82802D10020A8
:1004700013490860704710B51348C069202108402F
:1004800000281BD011480068007A64280FDC0E4851
:1004900020308088C1B20D48006800F05CF809483F
:1004A000808AFF21013188430649888206E0054899
:1004B000808AFF21013108430249888210BD000073
:1004C000040000200008004800380140000000201F
:1004D00070B50446082000F0CBF905462C7028467C
:1004E00070BD416070470160704770B50446206878
:1004F000002813D020684068002806D0206845688E
:10050000206800F08BF9256004E0206800F086F98F
:1005100000202060207A401E207200E070BD00BFE5
:10052000FCE700B502460B46106800280BD0506867
:10053000002803D050684360536008E0536011689E
:100540005068486003E019461046FFF7CCFF107A68
:10055000401C107200BD70B505460C462046FFF7E2
:10056000B7FF064631462846FFF7DBFF70BD7047F0
:10057000704700000448804704480047FEE7FEE754
:10058000FEE7FEE7FEE7FEE75F060008C1000008A1
:100590000CB5002001900090734800680121090407
:1005A00008437149086000BF6F4800680121490491
:1005B000084000900198401C01900098002804D148
:1005C0000521090201988842EED16748006801219F
:1005D00049040840002802D00120009001E00020DA
:1005E00000900098012839D11120604908605E48C8
:1005F00040685D4948600846406848600846406871
:100600003F21090488435849486008464068112141
:100610000904084354494860084600680121090656
:1006200008435149086000BF4F480068012149064E
:1006300008400028F8D04C484068800880004A49AB
:10064000486008464068022108434749486000BFA7
:10065000454840680C2108400828F9D10CBD10B568
:1006600041480068012108433F4908600846406846
:100670003F4908403C494860084600683D490840F9
:1006800039490860084600680121890488433649D1
:100690000860084640683F210904884332494860A1
:1006A0000846C06A00090001C8620846006BFF21C5
:1006B000543188432C4908630846406B4008400089
:1006C000486300208860FFF763FF10BDF8B5002580
:1006D000002400260027244840680C2108400546D5
:1006E000002D04D0042D06D0082D2AD107E0224881
:1006F0002249086029E020482049086025E01A487E
:1007000040680F21890408400446174840680121C9
:10071000090408400646A00C841C002E04D1184889
:100720006043164908600BE00F48C06A0007000FDD
:10073000471C3946104800F027F860430F4908600D
:1007400003E00D480D49086000BF00BF064840683F
:10075000F021084000090B490D5C08480068E8409A
:1007600006490860F8BD0000001002400020024069
:100770000CB8FFF8FFFFF6FE00127A000800002018
:1007800000093D000C00002030B50B46014600205A
:100790002022012409E00D46D5409D4205D31D4687
:1007A0009540491B2546954040191546521E002D7F
:1007B000F1DC30BD03460B439B0703D009E008C9B9
:1007C000121F08C0042AFAD203E00B780370401C01
:1007D000491C521EF9D27047064C0125064E05E011
:1007E000E36807CC2B430C3C98471034B442F7D352
:1007F000FFF76AFCDC080008FC08000802E008C8F3
:10080000121F08C1002AFAD170477047002001E08A
:1008100001C1121F002AFBD17047000010B500284B
:1008200023D0124B0022001F196803E0814203D835
:100830000A4649680029F9D1002A0AD01368841AA7
:100840009C4204D1006818181060104602E0506005
:1008500000E01860002907D002680B1A934203D108
:100860000B68D21802604968416010BD1C0000206E
:10087000F0B50B30C108C900144F0026144A0FE030
:1008800003688B420BD38B4205D95C1A4318456829
:1008900030C3083B00E04368136002C004E0021D5F
:1008A00010680028ECD13046002803D138680028B1
:1008B00001D00020F0BD064A06481060064A121A10
:1008C000D208D20044C001203860D7E720000020C1
:1008D0001C0000202C00002028020020FC0800083A
:1008E0000000002024000000FC0700082009000888
:1008F00024000020040600000C080008000000008E
:1009000000000000006CDC0200000000000000009D
:1009100001020304060708090000000000000000AF
:04000005080000C12E
:00000001FF
